:020000040800F2
:1000000000200020D58200082583000825830008F1
:1000100000000000000000000000000000000000E0
:100020000000000000000000000000002583000820
:10003000000000000000000025830008D75B0008D6
:1000400025830008258300082583000825830008F0
:10005000258300084D5E00085D5E00086D5E0008A7
:100060000000000025830008258300082583000880
:1000700025830008D9580008F1580008F9580008ED
:100080001159000825830008258300082959000814
:100090000000000041590008595900082D7A000855
:1000A000457A00082583000825830008156C0008A0
:0C00B0002D6C0008496C000800000000E6
:1000BC000023C25C0133002AFBD1581E704700009C
:1000CC0002B4714649084900095C49008E4402BCDF
:1000DC007047C04603B47146490840004900095EA8
:1000EC0049008E4403BC7047002243088B4274D3F2
:1000FC0003098B425FD3030A8B4244D3030B8B421D
:10010C0028D3030C8B420DD3FF22090212BA030C25
:10011C008B4202D31212090265D0030B8B4219D306
:10012C0000E0090AC30B8B4201D3CB03C01A524126
:10013C00830B8B4201D38B03C01A5241430B8B426E
:10014C0001D34B03C01A5241030B8B4201D30B0357
:10015C00C01A5241C30A8B4201D3CB02C01A52417E
:10016C00830A8B4201D38B02C01A5241430A8B4241
:10017C0001D34B02C01A5241030A8B4201D30B022A
:10018C00C01A5241CDD2C3098B4201D3CB01C01A44
:10019C00524183098B4201D38B01C01A524143094E
:1001AC008B4201D34B01C01A524103098B4201D33C
:1001BC000B01C01A5241C3088B4201D3CB00C01AA9
:1001CC00524183088B4201D38B00C01A5241430821
:1001DC008B4201D34B00C01A5241411A00D2014646
:1001EC00524110467047FFE701B5002000F0F0F8CF
:1001FC0002BDC0460029F7D076E7704703460B4393
:10020C007FD4002243088B4274D303098B425FD303
:10021C00030A8B4244D3030B8B4228D3030C8B422F
:10022C000DD3FF22090212BA030C8B4202D3121215
:10023C00090265D0030B8B4219D300E0090AC30BEA
:10024C008B4201D3CB03C01A5241830B8B4201D397
:10025C008B03C01A5241430B8B4201D34B03C01A80
:10026C005241030B8B4201D30B03C01A5241C30AF8
:10027C008B4201D3CB02C01A5241830A8B4201D369
:10028C008B02C01A5241430A8B4201D34B02C01A53
:10029C005241030A8B4201D30B02C01A5241CDD2F8
:1002AC00C3098B4201D3CB01C01A524183098B4243
:1002BC0001D38B01C01A524143098B4201D34B012C
:1002CC00C01A524103098B4201D30B01C01A52418F
:1002DC00C3088B4201D3CB00C01A524183088B4216
:1002EC0001D38B00C01A524143088B4201D34B00FF
:1002FC00C01A5241411A00D2014652411046704771
:10030C005DE0CA0F00D04942031000D34042534075
:10031C0000229C4603098B422DD3030A8B4212D335
:10032C00FC22890112BA030A8B420CD38901921167
:10033C008B4208D3890192118B4204D389013AD0A4
:10034C00921100E08909C3098B4201D3CB01C01A79
:10035C00524183098B4201D38B01C01A524143098C
:10036C008B4201D34B01C01A524103098B4201D37A
:10037C000B01C01A5241C3088B4201D3CB00C01AE7
:10038C00524183088B4201D38B00C01A5241D9D2FF
:10039C0043088B4201D34B00C01A5241411A00D280
:1003AC000146634652415B10104601D34042002B7C
:1003BC0000D54942704763465B1000D3404201B5FB
:1003CC00002000F005F802BD0029F8D016E77047B0
:1003DC007047C0468446100062468C46190063463E
:1003EC0000E0C0461FB50CF0B5FE002801D400217A
:1003FC00C8421FBD10B50CF0F7FD4042013010BDD6
:10040C0010B50CF0A7FE002801DB002010BD012068
:10041C0010BDC04610B50CF09DFE002801DD00207B
:10042C0010BD012010BDC04610B50CF023FE0028F5
:10043C0001DC002010BD012010BDC04610B50CF031
:10044C0019FE002801DA002010BD012010BDC046A5
:10045C00844608006146FFE71FB50BF0E5F900285C
:10046C0001D40021C8421FBD10B50BF06DF94042FC
:10047C00013010BD10B50BF0D7F9002801DB0020BE
:10048C0010BD012010BDC04610B50BF0CDF90028F1
:10049C0001DD002010BD012010BDC04610B50BF0D1
:1004AC007BF9002801DC002010BD012010BDC046E6
:1004BC0010B50BF071F9002801DA002010BD0120F5
:1004CC0010BDC046002B11D1002A0FD1002900D13C
:1004DC00002802D00021C943080007B4024802A139
:1004EC004018029003BDC046E9FEFFFF03B4684606
:1004FC0001B502980AF038FD019B9E4602B00CBC77
:10050C007047C0461C2101231B04984201D3000CE8
:10051C0010391B0A984201D3000A08391B0998426A
:10052C0001D30009043902A2105C40187047C04680
:10053C0004030202010101010000000000000000A0
:10054C0010B5002903D1FFF7DDFF203002E00800D1
:10055C00FFF7D8FF10BDC04610B5064C2378002B12
:10056C0007D1054B002B02D0044800E000BF01234B
:10057C00237010BD7C0100200000000000E3000887
:10058C00044B10B5002B03D00349044800E000BF16
:10059C0010BDC046000000008001002000E30008F0
:1005AC00F0B506009BB0002803D1002420001BB03E
:1005BC00F0BDFFF77DFD0500102007F0A7FF041E1E
:1005CC00F3D02B0008339B0901339B011800012148
:1005DC004030089307F062FF01900028E6D02A0013
:1005EC00310008F000FB8023019A53551300089A40
:1005FC009B18083B6A0FED005A601D603B4B06933D
:10060C003B4B05933B4B04933B4B039300230793CA
:10061C00019B079A0AA89918402208F0E4FA039B58
:10062C00002009930F23049F9C46069E059D02E023
:10063C002E003D000F000F283AD82B00020073400B
:10064C003B40734002932D498300C958029B920092
:10065C0059180AABD3588200C918099B0130C91824
:10066C00274B09969A5820239B1AD941C91940281F
:10067C00DED1039B9B190393049B5B180493059B8E
:10068C00DB190593069B5B190693079B4033079375
:10069C00079A089B9342BBD8019807F041FF039B34
:1006AC002360049B6360059BA360069BE3607DE76E
:1006BC001F280AD805222B0042437B4033406B4055
:1006CC000293013261460A40BDE72F2807D8032266
:1006DC002B00424373407B4002930532F2E7F34315
:1006EC0007223B436B4042430293EBE776543210B4
:1006FC00FEDCBA9889ABCDEF01234567A4EA00086C
:10070C00A4EB0008F0B504000D0087B0002802D15E
:10071C00002007B0F0BD0029FAD001AE1122300044
:10072C000C496F0008F05FFA781C07F0EFFE002808
:10073C00EED003006519227801341109715C19702F
:10074C000F210A40B25C5A700233A542F3D1002348
:10075C00C355DEE718E3000810B5040007F076FE79
:10076C00044B054A1860054B1C6013780133137059
:10077C0010BDC046A0010020000000209C010020FC
:10078C0010B504002100044807F0F2FB22000349D5
:10079C00034807F005FC10BDC001002029E3000848
:1007AC002403002010B504002100044807F0CAFB04
:1007BC0022000349034807F0F3FB10BDC0010020E1
:1007CC002BE300082403002030B5174C89B020001F
:1007DC00164907F0CDFB164D1649280007F0C8FB4B
:1007EC00C82007F037FE03226846134907F088FF3C
:1007FC006946280007F0BCFB6A461049200007F048
:10080C00CFFBC82007F026FE0D49280007F0B0FBEF
:10081C00C82007F01FFE20000A4907F0A9FB0022A0
:10082C00094B1A7009B030BD2403002034E30008D2
:10083C00C00100205AE3000865E300082BE3000820
:10084C0073E3000878E30008A401002070B50D4E96
:10085C003378002B14D00C4D0C49280007F088FB82
:10086C0003240B490B4807F083FB013CC82007F01D
:10087C00F1FD002CF5D128000749347007F078FB06
:10088C0070BDC046A40100202403002094E300089E
:10089C00A4E30008C0010020A7E3000870B5104CC9
:1008AC001049200007F064FB0F49104807F060FB6B
:1008BC00042220000E4907F073FB2825642007F062
:1008CC00C9FD0C4B0C4A013D1A60002DF6D10122DA
:1008DC000A4B20000A491A7007F04AFB70BDC0464B
:1008EC0024030020BAE30008D7E30008C00100206D
:1008FC00E2E3000800300040AAAA0000A401002096
:10090C000CE40008F0B593B00EAD3C2283B20400A9
:10091C00079128001E4900F02DFD0E9B0AAE039393
:10092C00AB8803980493109B08AD0593119B0CAFF7
:10093C0006930DF00BFC01230422009507F0E8FB55
:10094C0005980DF003FC01230422009607F0E0FB50
:10095C0006980DF0FBFB01230422009707F0D8FB4F
:10096C002A000C49049B07980197009607F0C8FED3
:10097C00002C0BD1084B039A1A60084B069A1A608C
:10098C00074B059A1A60074B049A1A8013B0F0BDF6
:10099C008804002029E40008B0010020AC010020EC
:1009AC00A8010020A601002070B506000E4896B0E4
:1009BC00019300920B000200502102A807F05CFE8C
:1009CC0002A8FFF7EDFD10210500FFF79BFE0400C8
:1009DC000100300008F0FFF8280007F0A1FD20000E
:1009EC0007F09EFD16B070BD46E40008F0B51F4C34
:1009FC009DB00B911E4922000A901E4B13A8099121
:100A0C00FFF7D2FF1C4B0DAD18680DF09FFB0123B7
:100A1C0000951A0007F07CFB184B0FAE18680DF010
:100A2C0095FB012300961A0007F072FB144B11AFD3
:100A3C0018680DF08BFB012300971A0007F068FB78
:100A4C00104B114A00215B5E0A980693E1239B0030
:100A5C00029313AB0193099B0B9900930597230009
:100A6C000496039507F008FE1DB0F0BD56E400088F
:100A7C00010000204DE40008B0010020AC01002072
:100A8C00A8010020A601002068E40008F0B58C4BFA
:100A9C008C4A8D4CBDB01A6023781C2B18D0002BBF
:100AAC0016D007F0D3FC894B1B68C01A884B9842B0
:100ABC000ED98849884807F05BFA8848FFF760FE32
:100ACC00642007F0C7FCFFF7E9FE1C2323709CE0B1
:100ADC002378002B55D107F0B9FC7C4B1860804B68
:100AEC001B78002B01D0FFF7B1FE7E4D7A4E288883
:100AFC007D4F7E4C002820D06021FFF77BFB89B214
:100B0C0000291AD17A49300007F032FA79493800B5
:100B1C0007F02EFA784807F09DFC2100380007F00A
:100B2C0027FAC82007F096FC2100380007F020FABD
:100B3C00C82007F08FFCFFF747FE7049380007F01C
:100B4C0017FA642007F086FC6D49002007F0D5FAEF
:100B5C006B490700002007F0D0FA6A4A43007B403B
:100B6C0069491268694807F0CBFD3000684907F005
:100B7C00FFF920002B8801332B80FFF701FE642046
:100B8C0041E01C2B41D007F061FC624B1B68C01A82
:100B9C00614B1B68984238D9207801381A2834D810
:100BAC00FFF78EFA0E101214161C2123252C353744
:100BBC003D3F4143454C6069733D3F757A6D7F0005
:100BCC005648DAE75648D8E75648D6E75648D4E7A9
:100BDC005648FFF7D5FDFA20400014E05448FFF7C3
:100BEC00CFFDC8200FE05348C7E75348F1E76846EC
:100BFC00524A534907F084FD6846BEE75148FFF757
:100C0C00BFFDFA20C000FFF7A7FD3DB0F0BD4E4878
:100C1C00B3E74E49304807F0ABF93048ADE74C48E4
:100C2C00ABE74C48A9E74C48A7E74C48A5E7684612
:100C3C004B494C4A07F064FD6846D0E74A4A4B4999
:100C4C00684607F05DFD6846FFF7ACFD0024200008
:100C5C006946FFF757FE01346846FFF7A3FD0F2CDA
:100C6C00F5D1B8E742491C4807F082F94148FFF733
:100C7C0087FD4148C7E74149174807F079F94048D3
:100C8C00FFF77EFDFA208000BDE73E49C2E7F02168
:100C9C006846FFF7ABFEAFE73B48FFF771FD3B48FB
:100CAC00B1E70E48FFF76CFDFA20400007F0D2FBCD
:100CBC000C4B37491A88084807F072F903E7C0460D
:100CCC0000300040AAAA000000000020980100207B
:100CDC00905F0100FBE400082403002024E50008D9
:100CEC00A4010020B8010020C0010020A4E30008EA
:100CFC0030E500084FE50008881300005AE30008AF
:100D0C00FFFFFF7FB40100205BE50008010000201D
:100D1C0062E50008A00100209C0100208DE5000880
:100D2C0094E500089DE50008A7E50008B1E500087A
:100D3C00C0E50008C9E50008D6E50008E1E50008B3
:100D4C00EAE5000802E600080FE600081CE60008C9
:100D5C003AE6000846E600085AE600087DE6000878
:100D6C00AEE6000802020000C3E60008D4E6000864
:100D7C00DAE60008EBE60008983A0000FBE600080B
:100D8C000CE7000818E7000832E7000810270000FD
:100D9C0042E700080123154A10B5116E0B430221DE
:100DAC001366134B106E084219D1013BFAD2114B4A
:100DBC00114A1A6005225A60104A9A60104AD96882
:100DCC00002902D0013A002AF9D10E4A0E491A60C4
:100DDC000E4A0F481A600A2207F0E2F805E0002BD1
:100DEC00E5D10C490A4807F0C3F810BD00100240C9
:100DFC00102700000030004055550000C4090000C9
:100E0C0011270000CCCC000093E70008AAAA000030
:100E1C00240300206EE70008E12170B5594C06222E
:100E2C002000490207F012F8E121574D0622280054
:100E3C00490207F00BF801211D2007F06FFA002181
:100E4C001D2007F0C7FA514B1868514B1860514BD5
:100E5C001B685840504B1B68584007F03DF9200068
:100E6C004E4907F085F820004D4907F081F8200025
:100E7C004C4907F07DF820004B4907F079F8200029
:100E8C004A4907F075F80F222000494907F088F805
:100E9C0060222000474907F083F8962246499201C8
:100EAC00200007F07DF8454E300000F087F9300047
:100EBC00012100F0E5F92000414907F059F84149BA
:100ECC00200007F055F8404807F0C4FA20003F49CD
:100EDC0007F04EF83E4E2800310007F049F8C820C4
:100EEC0007F0B8FA3100280007F042F8C82007F0E4
:100EFC00B1FA962220003749920107F051F8962258
:100F0C0035499201280007F04BF8FA20400007F011
:100F1C00A1FA280006F0CBFE642007F09BFA96217C
:100F2C0006222800890106F091FF9620400007F068
:100F3C0091FA3100280007F01BF8C82007F08AFA54
:100F4C003100280007F014F8C82007F083FA962225
:100F5C0022499201200007F023F8FFF735FCFFF738
:100F6C0019FF07F073FA1E4A1E4B80181860FA20FE
:100F7C00800007F06FFA1E2220001B4907F010F8C2
:100F8C0070BDC04624030020C00100209075FF1FD7
:100F9C00B40100209475FF1F9875FF1FB4E700087B
:100FAC00DFE70008FCE700081AE80008B6E70008CD
:100FBC002BE8000849E8000868E8000888040020CD
:100FCC0079E80008A1E80008B80B0000BBE80008AD
:100FDC00A4E30008D1E80008EFE80008FBE80008EB
:100FEC0090B9F2FFBC0100201FE9000870B514484D
:100FFC0000F004FA134B144A144D1A602B781C2B76
:10100C0016D107F023FA124C2368C01A114B9842E0
:10101C000ED91149114806F0ABFFFFF717FC00235E
:10102C002B7007F013FA206007F010FA0C4B1860C5
:10103C00FFF72CFD80200121C00102F07FF870BD6C
:10104C008804002000300040AAAA00000000002004
:10105C00BC010020A0BB0D004AE9000824030020BD
:10106C009801002010B592B03822002104A807F096
:10107C0049FD00211022684607F044FD80208000C5
:10108C0002F080F802230493FE33079380231B01A4
:10109C00089340230993002304A80B9302F0CEF885
:1010AC00011E00D0FEE707230190029003906846D2
:1010BC00009302F02BFB002800D0FEE705F080F82F
:1010CC0012B010BD10B5094800F052F800220849C2
:1010DC00084806F055FE00220749084806F050FE65
:1010EC0007F0B4F9064B186010BDC0468804002008
:1010FC00003801402403002000440040C0010020BF
:10110C00A00100200122014B1A707047300E002004
:10111C00064B10B51B78002B03D10121C72007F01B
:10112C0059F9034A13680133136010BD280E0020CF
:10113C002C0E0020012A02D1016000207047022AE7
:10114C0005D0032AF9D0002AF7D10260F5E70B6825
:10115C000360F2E710B50368984710BD836810B5BB
:10116C000400002B02D0032201009847200010BD80
:10117C0070B5002504000561456185611C3000F0E7
:10118C00CDF9094BE01800F0ACFA084B2000E55003
:10119C00074BE550074BE38019232372064B236062
:1011AC003C236381A38170BD840900009809000071
:1011BC009C090000C711000014AEA73FF0B5050054
:1011CC0087B00121807907F0A9F80121A87907F0EF
:1011DC0001F90121E87907F0A1F80121E87907F07C
:1011EC00F9F800F02DFAB42004F070FC040000268D
:1011FC001C4904F0C1FB1C4F200002220A213C6058
:10120C0004F03CFB194B03960293194B02AC009370
:10121C00E360184B2100A3603868019304F0F8FBDD
:10122C002000FFF79BFF386804F022FA287A31007F
:10123C0007F074F8104B586E431C00D019200F4B5C
:10124C0066600293009B0422E360019B2100A36073
:10125C0006F0ECFE2000FFF781FF07F0F7F8A8611D
:10126C0007B0F0BD00040040340E0020111100083E
:10127C0061110008411100082CF100081D11000833
:10128C004175704710B5084BC0791B78002B09D1FC
:10129C0005395F33FF3389B2994203D9012107F035
:1012AC0099F810BD0021FAE7280E0020034B10B569
:1012BC00C358002B01D003C9984710BD98090000F2
:1012CC00034A10B58458002C01D00FC9A04710BD9B
:1012DC009C09000010B50400081C21680AF0ECFA07
:1012EC0008490AF01BF9237D022B07D0032B07D0EA
:1012FC00012B02D104490AF0DFFA10BD0349FAE7C9
:10130C000349F8E700004040C0CFF83F66666640EE
:10131C00062A0F4070B5040010880E0080B215002C
:10132C000AF0E4FE011C3000FFF7D4FF20606B884C
:10133C002000A38070BD002370B50E00C38093887D
:10134C0011688380040030001500FFF7C3FF206094
:10135C00E8680AF0CBFE011C3000FFF7BBFFA06071
:10136C00A8680AF0C3FE011C3000FFF7B3FFE06071
:10137C00200070BDF0B506008DB010000F000321E9
:10138C0014001D00FEF73AFF019020000321684372
:10139C00FEF734FF84B207A800F0A3F9019BE31811
:1013AC000193019B03AD9C4210DB1022002128000D
:1013BC0007F0A8FB290007A800F0E2F930002A008A
:1013CC003900FFF7B8FF30000DB0F0BD3900220036
:1013DC0028001C3100F0D6F82B79002B04D003998F
:1013EC006A6807A800F0C0F90134A4B2D9E710B5B7
:1013FC0004000023FFF7BEFF200010BDF0B53E4BEC
:10140C0004001A7889B0002A6ED000221A703B4A68
:10141C000369127801330361002A04D0384A53431C
:10142C00384A934216D800F03DF9B422B421637DBA
:10143C0049005B421340C01880B2FEF7DBFE8DB250
:10144C0029002000FFF71EFF2F4B2A000121E01876
:10145C0000F050F90021A07906F0BCFF22692B4B5B
:10146C0053430122D3412A4A93422CD806F0EEFF73
:10147C00A369284EC01A284B984237D804AF1022C3
:10148C000021380007F03EFB1F4B3900E01800F03C
:10149C0077F96D460123AB8033682B80BB886B805A
:1014AC000023336006F0D2FFA061200069461C3097
:1014BC0000F04AF8210002A86A46FFF72BFF200033
:1014CC0002A9FFF7F3FE0A21A38920695943FEF70D
:1014DC0091FE002908D1210004A86289FFF787FF3B
:1014EC00200004A9FFF7ECFE09B0F0BD0023336027
:1014FC0006F0ACFFA061E6E7300E0020280E0020BD
:10150C00CDCCCCCC3333333384090000EFEEEEEE8C
:10151C00888888082C0E00201B0C000096221201D3
:10152C0010B581180300002201241A801C715A8006
:10153C0006338B42F9D196231B01C250014BC2508A
:10154C0010BDC0466409000070B596260D00C82178
:10155C0036010400805949000130FEF74BFE06208D
:10156C0048430522A1512018290007F03CFBC82153
:10157C00034A4900A3588B4201D20133A35070BDDA
:10158C00640900000E4B70B5CB5804000D0093425B
:10159C0005D80023038003714380200070BD96237F
:1015AC00C8211B01E85849008A1A1018FEF722FEC0
:1015BC00062251432000691807F015FBEDE7C046E1
:1015CC006409000070B506000D00084C35212000A0
:1015DC0005F04AFC3100200005F0A1FC2900200098
:1015EC0005F09DFC200005F075FD70BDA00F0020DE
:1015FC00F8B504001600114D0F002800352105F038
:10160C0033FC2100280005F08AFC280005F062FD5F
:10161C0032003521280005F056FD0024B4420BD2CF
:10162C00280005F059FB002806D0280005F058FBCF
:10163C0038550134E4B2F1E7F8BDC046A00F0020E4
:10164C0007B5154A1548D16D154BD9670300926D36
:10165C00883300211A6005F02FFE0122022001A917
:10166C00FFF7C6FF50210220FFF7ACFF012202203A
:10167C0001A9FFF7BDFF0C210320FFF7A3FF0C21ED
:10168C000020FFF79FFF01210820FFF79BFF01219E
:10169C000800FFF797FF07BD2CF10008A00F0020F2
:1016AC00A80F0020012213B510006946FFF7A0FF18
:1016BC00012006F0CFFE02210120FFF783FF01ACD1
:1016CC000A2006F0C7FE022221001920FFF790FF26
:1016DC0001210800FFF776FF208840BAC004C00D36
:1016EC0016BD00230360436000238360C360013B8D
:1016FC0003617047F8B5040010000D000CF0D4FC29
:10170C00174B184A0BF094FD0CF068FD071C2800D1
:10171C000AF0ECFC061C381C08F0F6F9011C301C15
:10172C000AF0CAF8011C206809F0EAFC2060381C99
:10173C0008F024FA011C301C0AF0BEF8011C606889
:10174C0009F0DEFCA36860600133A360E368AB4280
:10175C0000D2E5602369AB4200D92561F8BDC046D3
:10176C0046DF913F399D52A207B56B46009101921D
:10177C0019885A8889B292B2FFF7BCFF07BD0000E6
:10178C00F7B5040080680E00002846D00AF0AEFCC5
:10179C00051C011C206809F0C1FE291C0190606821
:1017AC0009F0BCFE0199071C08F08CF91B490AF0E2
:1017BC0083F80CF0CBFC1A4A1A4B0BF0F7F80CF030
:1017CC000DFD0021051CFEF755FE002804D0281C39
:1017DC00154909F095FC051C0199081C0AF06CF8D8
:1017EC00391C0190381C0AF067F8011C019809F0AB
:1017FC0087FC08F06BF9FC2130608905281C09F086
:10180C007FFC09F07BFBE368B080B3602369F36075
:10181C000023236063600023A360F7BD0000344302
:10182C00182D4454FB2109400000B44370470000BC
:10183C0070B5104B05001978002901D1012070BD3D
:10184C00FA208000FEF750FC0B4C01002068FEF7DC
:10185C004BFC00F081F8041EF0D1032DEED80200F1
:10186C0001202900404200F031F8044B20001D609B
:10187C00E5E7C046110000205000002014000020B5
:10188C008023084A5B00116810B50B4300201360DD
:10189C00FFF7CEFF041E03D1FFF7C8FF200010BDD9
:1018AC000124FBE700200240034A044B11681B781B
:1018BC005B1813607047C046380E002011000020E2
:1018CC00014B18687047C046380E002010B5FF2435
:1018DC0003220B0021000240D20091409B012340C7
:1018EC00C943934000280ADBC0240B4A80088000BF
:1018FC008018A40002590A401343035110BD0F2253
:10190C0010400838054A800880008018C2691140D0
:10191C001943C161F2E7C04600E100E000ED00E0D0
:10192C00002805DB1F2318401E3B8340014A13602F
:10193C007047C04600E100E0002809DB1F23184077
:10194C001E3B8340034AD367BFF34F8FBFF36F8FA8
:10195C007047C04604E100E08022431E520401207F
:10196C0093420DD2C021074A07485360036A090607
:10197C001B021B0A0B4303620020072390601360B9
:10198C007047C04610E000E000ED00E0002807DBE7
:10199C001F23C02218401E3B8340024952008B502B
:1019AC007047C04600E100E0704710B5FFF7FCFF40
:1019BC0010BD704710B5041E01D1012010BD437F2E
:1019CC00DAB2002B02D10277FFF7F3FF0223637721
:1019DC002379002B1CD118212368124A5A619A686A
:1019EC008A439A6062792368002A19D1013A6021EE
:1019FC001A619A6800208A4361690A4380219A60BF
:101A0C009A688A43A1690A439A6001236377D5E7F0
:101A1C002000E268A16800F007F80028E2D0CCE7CB
:101A2C002269E4E7B71DC10430B5012504001E236B
:101A3C002800294202D130BD013B21D30800D840F7
:101A4C002842F9D0102A17D0102A07D8002A0AD019
:101A5C000120082AEFD10F2BEDD804E00120182A21
:101A6C00E9D1062BE7D820684161182183688B43A4
:101A7C00134383600020DEE70120072BF3D9DAE75C
:101A8C000120102AE0D1D6E7F0B5002808D0841D3B
:101A9C00E37F411D022B05D00423C3630023CB77C6
:101AAC000120F0BD0E250268466C1368AB43136031
:101ABC003368104D2B403360012316689E4316602B
:101ACC00026C1B331A401B3B93400B4E77683B4315
:101ADC007360C26C836C5A60036D002B05D01A685E
:101AEC002A401A60436D826D5A6001230020E3770F
:101AFC00C877D6E7FFFEFFFF00000240F8B5811D56
:101B0C00CB7F022B03D00423C3630120F8BD0E242A
:101B1C0002681C271368456CA343136001231468E7
:101B2C009C4314602A68104C22402A60026C0F4DB2
:101B3C003A4093406E6833436B60C26C836C5A605E
:101B4C00036D002B05D01A6822401A60436D826D1C
:101B5C005A6001230022CB77431DDA77836B9342C3
:101B6C0000D098470020D1E7FFFEFFFF00000240A5
:101B7C000630C07FC0B270470023F0B585B00A684C
:101B8C001400DC4001D105B0F0BD012514009D40CE
:101B9C002C4000942A4200D191E04A685F009446A0
:101BAC000322644622400324BC40E4430194541EA7
:101BBC00012C2ED88668019C2640CC68BC4034434E
:101BCC00846044680126AC432500644624093440F3
:101BDC009C402C434460C568019C25408C68BC40EB
:101BEC002C43C460022A16D107250F261D40AD00D8
:101BFC00AE40DC08A40004190294246A0396260063
:101C0C00039CA64334000E69AE402643029C266218
:101C1C0001E0032ADFD1BA400468019D25402A4324
:101C2C00C02402606246A402224248D0254A032501
:101C3C009C08A400A4180F221D40ED00AA40A02768
:101C4C00266EFF0596430022B8420CD01E4F01327F
:101C5C00B84208D01D4F0132B84204D01C4F033299
:101C6C00B84200D1023AAA40674632432266154C6C
:101C7C00009A2668009DD2433543FF0201D43500FB
:101C8C001540674625606668009D3543BF0201D448
:101C9C0035001540674665600E4C009DE66F354378
:101CAC00BF0301D4350015406746E5670A4C009E1A
:101CBC00E56F2E43FF0301D415402E00E667013378
:101CCC005DE7C046001802400004005000080050B8
:101CDC00000C0050081802400418024070B5084D62
:101CEC000400EB68184202D0E86004F0A1F82B69FC
:101CFC00234203D020002C6104F09EF870BDC04636
:101D0C000018024003689A69920701D500229A6272
:101D1C0001229969114202D199690A439A6170476B
:101D2C0030B5039C00682343120489051A43890DBE
:101D3C00054B45680A43640D234352009D435208EA
:101D4C002A43426030BDC046FF63FF0310B5426BAF
:101D5C001A4C0BB2A2421ED0194CA2421BD0194CE9
:101D6C00A24218D0B822F224DB171A40CB07DB179B
:101D7C00234013438A0706D5F422134301680A68EB
:101D8C0013430B6010BD102901D19022F5E72029D7
:101D9C00F4D10B43F2E7B822F224DB171A40CB073D
:101DAC00DB17234013438A07E6D41029EDD02029F2
:101DBC0001D16022E1E74029EBD0DFE7B92B000825
:101DCC00E12E00085D2A0008002310B5CA0708D5CB
:101DDC00030041331A7828231A40CA33282A00D129
:101DEC00B03B8A0708D502002824413212782240E1
:101DFC00A2420BD14422134309B2002901DAB822C2
:101E0C00134301680A689A430A6010BDF422F2E792
:101E1C00F7B505681700AA69102316000400019194
:101E2C0000201E401A420DD00600EB610090256880
:101E3C002022AB69134260D1002E30D00426012041
:101E4C00009B1E438022AB695200134202D001203A
:101E5C00EA6106438022D200134203D008210120FC
:101E6C000E43EA618022920013424BD00223EA61B6
:101E7C001E432000FFF746FF6B68244A01201340E5
:101E8C006B60636C202233436364230041331A700C
:101E9C0022000023423240341370237034E0019B43
:101EAC000133C5D0FFF70CFD019BC01B984201D834
:101EBC00002BBCD1220023684232586811789A69F1
:101ECC00C9B212040BD58022D201104207D12029AD
:101EDC0005D059680A435A60FFF7F2FC0700202529
:101EEC0023689B692B42A2D1FFF7EAFCC01B19287F
:101EFC00F6D920230126009399E7002E9ED12023AA
:101F0C00EB619BE70028B4D1FEBDC04600E800FEA3
:101F1C00F8B504000D0017001E0023689B692B40C8
:101F2C005B1B5A425341BB4201D0002026E03100DA
:101F3C002000069AFFF76CFF00281ED1731CECD012
:101F4C00FFF7BEFC069BC01AB04201D8002EE4D1AC
:101F5C0023689B692B405B1B5A425341BB42DCD12B
:101F6C002022636C13436364230041331A702200F4
:101F7C00002342324034137023700120F8BDC36A31
:101F8C00AA2B02D10023C3627047AA23C26A1B0288
:101F9C009A42F9D180239B04F5E7704770B5040091
:101FAC000120002C4ED0250041352B78DAB2002BC5
:101FBC0005D12300403320001A70FFF7EEFF2423D5
:101FCC0001212B702368E0681A68A6688A431A609E
:101FDC001D4962680A401A619A681C490A409A6055
:101FEC00012807D18022120232439A605A6818489D
:101FFC00024009E08422120232439A600228F5D191
:10200C0080225868120102435A605868114A0243F0
:10201C005A60DA6800200A40DA60616922690A4372
:10202C00A16909020A43DA60216AE2690A431A606B
:10203C00012219680A431A60202360642B70206304
:10204C004234207070BDC046FFFFFFF0FF7FFFFFE2
:10205C00FFF7FFFF00800002704770B504000120FD
:10206C00002C13D02500242341352B7022681368D3
:10207C00834313602000FFF7EFFF00202300606410
:10208C0042332870206340341870207070BD0000FB
:10209C00F0B51D00002389B007930300413305926E
:1020AC0003931B7804000220202B3FD1236880224D
:1020BC009F6912023E001640174237D1220040326F
:1020CC001778012F32D00138107024221027039872
:1020DC00890502708A0D66640492E268012A27D190
:1020EC002C4A04990A435A60FFF7EAFB060022685F
:1020FC00936992699B06D206DB0FD20F134319D05A
:10210C0023689B6900961A003A403B4226D12B006B
:10211C0020212000FFF7FCFE00281DD1202322687F
:10212C00D3612200403441321370207009B0F0BDED
:10213C00194AD6E76B1CDAD0FFF7C2FB801BA8420A
:10214C0001D8002DD3D12023039A40341370626838
:10215C0013436360002323700120E7E72B00002268
:10216C0020212000FFF7D4FE0028F5D1202223687F
:10217C00059EDF61DA610799013107910799B14238
:10218C00ABD3230041331A70636C40341A43626042
:10219C002070E1E70020000200280002F0B50500E5
:1021AC0085B0039141352E7804000A990220202E27
:1021BC0059D1260040363778012F54D00138307071
:1021CC0020302870200010254230057000256564F1
:1021DC006385264BE1626363638D254E6262FF2B40
:1021EC0014D9FF23802723850E407F040025AE429F
:1021FC0013D115782068013285621D00638D6262EF
:10220C00013B9BB263856B1E238506E0638D0E40FC
:10221C009BB2E76A2385002BE8D1236B112B06D1E7
:10222C00AA2904D0AA2200231202914207D120002D
:10223C00FFF7A5FE638DFF2B00D8E76A0D4BEAB2C2
:10224C00002E01D0228DD2B22000039900933B00C6
:10225C00FFF766FD230000254033200001211D708F
:10226C00FFF774FD280005B0F0BDC0461D2900081D
:10227C00FFFFFFFD00200080F0B50E00010085B0CF
:10228C00039341310D780400170002200A9A202D87
:10229C003DD1250040352878844663460220012B29
:1022AC0035D0013828702130087012384870002160
:1022BC00039B61646385194BE2626363638D6762A0
:1022CC00FF2B26D9FF23802723857F04236B122B1A
:1022DC0006D1AA2A04D0AA21002309028A4207D1D6
:1022EC002000FFF74CFE638DFF2B00D8E76A0C4BE8
:1022FC0031000026228D2000D2B200933B00FFF764
:10230C000FFD200002212E70FFF720FD300005B0DC
:10231C00F0BD638DE76A2385D8E7C0461D29000808
:10232C0000240080F0B5060085B0029228220191AD
:10233C0003934136337804001340934202D00120BA
:10234C0005B0F0BD019B002B02D0029B002B03D1EA
:10235C0080239B006364F2E7250025494035FFF795
:10236C0033FD2B780220012BEAD001232B7033781C
:10237C00204F2A2B16D101002000FFF725FD2368E2
:10238C001A6812040ED51A68E06B3A401A600028DD
:10239C0008D0194B8363FFF7B1FB002802D0E06B28
:1023AC00836B9847292333702300202242331A7001
:1023BC000023636423685A683A405A60019A626247
:1023CC00029A6285628D2285039AE2620B4A9969B0
:1023DC0062639A69D20303D50822114200D0DA61F4
:1023EC000026200002492E70FFF7B0FC3000A7E752
:1023FC0001800000FF7FFFFF09310008ED2F00086E
:10240C00F7B5070000922822019341373B7804006E
:10241C000D001340934201D00120FEBD002902D0D3
:10242C00009B002B03D180239B006364F4E7260000
:10243C0024494036FFF7C8FC33780220012BECD03E
:10244C00012131703B78292B16D12000FFF7BCFC01
:10245C0023681A6852040FD51A681B49A06B0A40EE
:10246C001A60002808D0194B8363FFF747FB00283C
:10247C0002D0A06B836B98472A233B702300202249
:10248C0042331A7000236364236811495A680A4066
:10249C005A60009A65626285628D2285019AE262B9
:1024AC000C4A996962639A69D20303D408221142D7
:1024BC0000D0DA610025200002493570FFF746FC98
:1024CC002800AAE702800000FFBFFFFF09310008C7
:1024DC00FF7FFFFFED2F0008020010B5413211788D
:1024EC000223202908D1802126331370034B0902C3
:1024FC004363FFF72BFC0023180010BDED2F0008E1
:10250C00036810B599691A68436B002B00D0984783
:10251C0010BD70477047030070B5002520220600DF
:10252C0042331D70013B1978040040361A70212982
:10253C000AD11123456303632039FFF745FC2000C2
:10254C003570FFF7E6FF70BD12234563036302216C
:10255C00FFF73AFC20003570FFF7DCFFF3E70000D3
:10256C000100036810B5040000201A68423108709D
:10257C00510418D51A6818490A401A6023004133CF
:10258C001A78292A14D1013A1A70212320002363C6
:10259C000121FFF719FC23000022403320001A70A0
:1025AC0005F031FA10BD1204E8D51A680B49E3E7BF
:1025BC001A782A2AF6D1023A1A70222320002363B1
:1025CC000221FFF701FC23000022403320001A7087
:1025DC0005F003FAE6E7C046FFBFFFFFFF7FFFFFF2
:1025EC000300F7B5282241331B780400016813401F
:1025FC0093423CD1FE278D698E698B68CA68ED03C6
:10260C000192C268360CED0F3E40022A25D19B0583
:10261C009A0D5B0F7340180006263040334210D1E0
:10262C00A36C0133A364A36C022B09D19B19A06486
:10263C00CB612300403318702900200005F082F98B
:10264C00F7BD802120000902FFF7BEFB230000220A
:10265C0040331A70019A3A40EEE780210902FFF7E5
:10266C00B3FB2300002240331A703200E4E7082346
:10267C00CB61002340342370E2E70000184B10B507
:10268C00C362002302000363040020204132107057
:10269C00537004226363114212D02368596A636A2F
:1026AC001970636A01336362238D002B08D0013BE0
:1026BC002385638D013B9BB26385636C1A43626413
:1026CC0020000849FFF780FB102223682000DA6104
:1026DC002300002240331A7005F069F910BDC04682
:1026EC000000FFFF03800000704770477047010037
:1026FC00020010B541310C7800234032602C06D119
:10270C00403C0C7003631370FFF7F0FF10BD0363C4
:10271C00137005F07CF9F9E770B505000022040090
:10272C00413542302B7802703A48283BE062628592
:10273C00626C0A436264022B2BD803212000FFF742
:10274C0043FB28232B70344BA06B6363236B002853
:10275C0040D01A001021113A8A433BD123681A68E1
:10276C00520403D51A682D490A401A60FFF700FA83
:10277C0001282BD0A06B2A4B00228363230040330B
:10278C001A70FFF7BBF9002823D0A06B836B984716
:10279C001FE020002349FFF717FB2000FFF7B2FAD8
:1027AC002B78602B10D020222A7023689969114253
:1027BC000AD09969103A114204D0DA61616C0C3A72
:1027CC000A4362642022DA610023BDE72000FFF790
:1027DC008EFF70BDE06B0028F8D01022123B9343A3
:1027EC00F4D123681A68120403D51A680E490A40FA
:1027FC001A60FFF7BDF90128E8D0E06B084B002206
:10280C008363230040331A70FFF778F90028E0D077
:10281C00E06BBBE70000FFFFED2F0008FFBFFFFFE1
:10282C000931000803800000FF7FFFFFF7B520236C
:10283C00050006684135F3612B7804000F00212B4D
:10284C002BD10121FFF7C0FA1123236373682E4AA1
:10285C0013407360002363632C4BE36210231F420D
:10286C0004D0F361626C0C3B134363642B78602BD4
:10287C0005D17F0703D5736ADBB20193019B20005E
:10288C00FFF740FA636C2A78602A01D0002B0CD039
:10289C002000616CFFF740FFF7BD2B78222BD5D1C0
:1028AC000221FFF791FA1223CFE72A78212A13D1BC
:1028BC00013A2A7022002100236342321078403101
:1028CC0013700B70402803D12000FFF70DFFE3E7D6
:1028DC002000FFF71EFEDFE72A78222ADCD1023A1D
:1028EC002A70220021002363423210784031137089
:1028FC000B70402803D12000FFF7F7FECCE7200037
:10290C00FFF708FEC8E7C04600E800FE0000FFFF26
:10291C00F0B5070040373B7804000D00160002208C
:10292C0085B0012B1AD001233B700F33194217D0FD
:10293C001A4215D022682000D361626C0C3B134301
:10294C006364FFF7DFF920231D4205D01E4203D03C
:10295C0029002000FFF76AFF0020387005B0F0BD99
:10296C0004231D4211D01E420FD09D4323685A6A86
:10297C00636A1A70636A01336362238D013B23859A
:10298C00638D013B9BB26385DDE76B06DA0F002B91
:10299C000CDB02231D4209D01E4207D0638D002B95
:1029AC00D1D0636A226819789162E4E72B0635D599
:1029BC007306C8D5628D2368002A23D0208D002889
:1029CC0020D15968638D8905890DFF2B08D9FF2209
:1029DC00802322855B0400902000FFF7A1F9B2E769
:1029EC00628DE36A92B20393184B22859C46039B3B
:1029FC00D2B2634502D0E36A0090EDE780230090E9
:102A0C009B04E9E75B689B0103D42000FFF783FD7F
:102A1C0099E740212000FFF77FFE94E7002A00D1C0
:102A2C0091E7730600D48EE7638D002BF1D12368F8
:102A3C005A68920100D586E7E16A044A9142E4D1D2
:102A4C0080225968D2010A435A607CE70000FFFFDC
:102A5C00F7B506004036337804000220012B15D060
:102A6C00012333700F33194211D01A420FD0226850
:102A7C002000D361626C0C3B134320216364FFF78D
:102A8C0065F92000FFF73EF900203070FEBD0223EF
:102A9C00194208D01A4206D02368226D9A6201238B
:102AAC005B422365F0E740250B063BD52A4239D023
:102ABC0001212000FFF788F910212000FFF746F9CB
:102ACC00638D002B29D0638DFF2B1BD90023BF35C1
:102ADC00E16C2585009380232A0089B25B042000D9
:102AEC00FFF71EF9638D5B1B9BB26385230041339B
:102AFC001A7823681968222A47D1802212020A43C5
:102B0C001A60C1E70023658DE16CADB22585009399
:102B1C008023EAB289B29B04E1E729002000FFF789
:102B2C00FBFDB1E7294233D02A4231D027000121E5
:102B3C002000FFF749F9413710212000FFF706F973
:102B4C003B78223B5A425341174A9B029B18628D99
:102B5C00FF2A10D9FF25E16C2585009380232A00DC
:102B6C0089B25B042000FFF7DBF8638D5B1B9BB223
:102B7C0063853A78BDE7658DE16CADB22585009330
:102B8C008023EAB289B29B04ECE78022D201B6E73B
:102B9C002023194200D177E71A4200D174E72000B4
:102BAC00FFF744FE70E7C04600200080F7B5070031
:102BBC0040373B7804000220012B15D001233B70D9
:102BCC000F33194211D01A420FD022682000D36162
:102BDC00626C0C3B134320216364FFF7B7F82000B1
:102BEC00FFF790F800203870FEBD4023080641D551
:102BFC001A423FD0266832689A433260638D002BAC
:102C0C002CD07168638D8905890DFF2B17D9FF2591
:102C1C00802325855B040020EAB200902000FFF79A
:102C2C007FF8638D5B1B9BB26385413423783268DC
:102C3C00222B10D180231B0213433360D2E7658D06
:102C4C001B4BE26AADB225859A4201D0E36AE2E7FA
:102C5C0080239B04DFE78023DB01EDE773689B0196
:102C6C0003D42000FFF757FCBCE740212000FFF7FE
:102C7C0053FDB7E7194212D01A4210D0638D002BC6
:102C8C00F3D1226853689B01ACD4E16A084B99429A
:102C9C00E7D180235168DB010B435360A2E720236B
:102CAC0019429FD01A429DD02000FFF7BFFD99E733
:102CBC000000FFFF70B5802503686D0099691A68E4
:102CCC00294206D0140604D50124466C34434464CE
:102CDC00DD618025ED00294206D0140604D50824B8
:102CEC00466C34434464DD618024A400214206D048
:102CFC00120604D50222416C0A434264DC610B23A8
:102D0C00416C194201D0FFF707FD70BDF7B505689E
:102D1C0006002B6841360093C36A040001932023FC
:102D2C0030780F002138EB6109280CD8FDF7C8F971
:102D3C0005680B0B0B0B0B6E056820005D49FFF74C
:102D4C0043F82123236380226B68120213436B60C8
:102D5C006B68594A200013406B60FEF7D3FF009B51
:102D6C005B0459D52B68554A13402B60A36B002B81
:102D7C0003D01B685B689BB2638504231F420FD092
:102D8C006A6A9F43636A1A70636A01336362238DB4
:102D9C00002B05D0013B2385638D013B9BB26385E2
:102DAC00638D002B03D00423626C134363641023E4
:102DBC001F4211D0009A1A420ED0628D002A49D1BE
:102DCC003378282B33D18023019A9B049A422ED13D
:102DDC0039002000FFF752FC2300002242331A7006
:102DEC00656C6263954244D02000616CFFF794FCE3
:102DFC003378282B03D139002000FFF73FFCF7BDB7
:102E0C0020002F49FEF7E0FF22239BE720002D49ED
:102E1C00FEF7DAFF002395E78022009B1202134293
:102E2C00ABD02B68284A13402B60E36B9FE73178BB
:102E3C001022236829290BD124490198884207D0F4
:102E4C002000DA61FEF75EFF2000FFF789FBC3E785
:102E5C00DA61C1E72268D3610423626C13436364B3
:102E6C00019A1B4B1A42B7D12000616CFFF754FC3E
:102E7C00B2E72700E36A154A403793420CD0200092
:102E8C00FFF76EFB2023114A2000E26233702563AA
:102E9C003D7004F08CFDB2E72023327820003370B3
:102EAC0025633D70222A02D104F097FDA7E704F0B8
:102EBC00AAFDA4E70180000000E800FEFFBFFFFFB1
:102ECC000280000003800000FF7FFFFF0000FFFF77
:102EDC00FFFFFFFEF8B5050040352E780400C36AED
:102EEC000220012E0BD0013828701F30014207D070
:102EFC00024205D02000FFF709FF00202870F8BD22
:102F0C00102631425ED032425CD080273F02500402
:102F1C003A401700C00F074351D0E66B002E1DD06E
:102F2C00002A03D032685268564272412600A76BC1
:102F3C004136002F05D0002803D03868406800289F
:102F4C0001D0012A1CD13278282A09D1802292047E
:102F5C00934205D12000FFF791FBCEE73200E5E765
:102F6C00102130782268D1612928C6D11A488342B1
:102F7C00C3D02000FEF7C6FE2000FFF7F1FABCE735
:102F8C0010212268D1610422616C0A43626430789A
:102F9C00124AC0B21342B0D12138092808D8FDF723
:102FAC008FF8050C070707070707050C2123236378
:102FBC002000616CFFF7B0FB9FE72223F7E7236843
:102FCC00DE619AE70823194297D01A4200D194E7A0
:102FDC002000FFF705FB90E70000FFFFFFFFFFFE5F
:102FEC0070B5050040352E780400C36A0220012E0E
:102FFC000BD0013828701F30014207D0024205D097
:10300C002000FFF783FE0020287070BD10200142C5
:10301C002FD002422DD0628D002A1CD122004132C9
:10302C001078282807D180208004834203D1200007
:10303C00FFF724FBE7E7102110782268D1612928DB
:10304C00E1D12C488342DED02000FEF75BFE20004D
:10305C00FFF786FAD7E72268D0610422616C0A4335
:10306C006264254A1342CED12000616CFFF754FBF9
:10307C00C9E70420014219D0024217D0628D002A00
:10308C000DD02268516A626A1170626A0132626202
:10309C00228D013A2285628D013A92B26285628D4F
:1030AC00002AB0D1134A9342ADD0D0E70820014298
:1030BC0005D0024203D02000FFF792FAA3E70220CA
:1030CC000142A0D002429ED0628D002A0DD0636ACC
:1030DC0022681978013391626362638D013B9BB264
:1030EC006385238D013B23858DE7034A134200D072
:1030FC0089E7ACE70000FFFFFFFFFFFE806A10B519
:10310C00836B002B01D000229A63C36B002B01D080
:10311C0000229A63FFF7EBFA10BD41300078C0B281
:10312C007047406C704700008023034A5B001168B5
:10313C000B4313607047C0460070004080230F4A59
:10314C0010B552690C009B0000280CD01A4201D11A
:10315C0000F044F804210A4A13698B431361012CD3
:10316C0008D130BF05E01A42F4D000F041F8002835
:10317C00F0D010BD40BF20BF20BFFAE70070004068
:10318C0000ED00E010B5114C1149236802000B4012
:10319C0003432360802300209B009A420ED10D4BE9
:1031AC000D49186806235843FCF79EFF8022431CE8
:1031BC00D200616908001040114200D110BD002BF3
:1031CC0001D0013BF5E70320F8E7C0460070004052
:1031DC00FFF9FFFF5000002040420F008023034AFC
:1031EC00DB0111680B4313607047C0460070004050
:1031FC000E4B10B5186806230D495843FCF774FFA5
:10320C000C4A0D49136801300B4080211360890072
:10321C00546923000B400C4201D1180010BD00284A
:10322C0001D00138F4E70320F8E7C0465000002035
:10323C0040420F0000700040FFBFFFFFF0B50400DC
:10324C0085B0002802D1012005B0F0BD0368DB0772
:10325C0010D423689B075CD423681B0700D5C1E0FE
:10326C0023685B0700D5F2E0E369002B00D079E11D
:10327C000020E9E73822AF4DAB681340EA68102B09
:10328C0009D1D3439B0708D12B689B03E1D5636815
:10329C00002BDED1D7E7082BF6D0802263685202D0
:1032AC00934211D12A6813432B60FEF709FB802748
:1032BC000600BF022B683B42CBD1FEF701FB801B03
:1032CC006428F7D90320BFE7A021C9028B4208D19B
:1032DC0080232968DB020B432B602B681A432A607E
:1032EC00E3E72A6894490A402A602A6893490A400D
:1032FC002A60002BD9D1FEF7E3FA80270600BF0223
:10330C002B683B42A5D0FEF7DBFA801B6428F7D96B
:10331C00D8E73822874DAB681340EA68102B28D1C8
:10332C0003210A40022A26D12A68520503D5E268F5
:10333C00002A00D187E7696862698148120201405E
:10334C000A436A60002B0CD12B687E4A7E491340DD
:10335C00226913432B602B687C4A9B045B0FDA4079
:10336C000A607B4B1868FEF763FA002800D173E7FC
:10337C0069E7002BD8D0E368002B20D02B68714A6A
:10338C00802713402269FF0013432B6080232A6897
:10339C005B0013432B60FEF793FA06002B683B424D
:1033AC0007D06A68636966491B020A4013436B6065
:1033BC0052E7FEF785FA801B0228EFD982E72B68CB
:1033CC00644A802713402B60FEF77AFA0600FF0050
:1033DC002B683B4200D13FE7FEF772FA801B0228B4
:1033EC00F6D96FE73822534DAB681340182B08D130
:1033FC002B6E9B0700D433E7A369002B00D02FE77B
:10340C0021E7A2690123002A10D02A6E0227134358
:10341C002B66FEF755FA06002B6E3B4200D01FE7D9
:10342C00FEF74EFA801B0228F6D94BE72A6E0227CC
:10343C009A432A66FEF744FA06002B6E3B4200D1F3
:10344C000EE7FEF73DFA801B0228F6D93AE7382240
:10345C00384DAB681340202B08D1EB6D9B0700D483
:10346C0002E7A368002B00D0FEE6ECE680220021E8
:10347C00EB6B52050091134208D1EB6B1343EB63DA
:10348C00EB6B13400393039B012300938027324E75
:10349C007F0033683B4215D0A368012B22D1EA6D23
:1034AC001343EB65FEF70CFA02270600EB6D3B426B
:1034BC0038D0009B012B00D0D6E6EB6B274A13408B
:1034CC00EB63D1E633683B433360FEF7F9F90190C7
:1034DC0033683B42E0D1FEF7F3F9019BC01A022896
:1034EC00F6D9EFE6EA6D052B05D1013B1343EB65ED
:1034FC00EA6D0123D4E701218A43EA65EA6D0331C1
:10350C008A43EA65002BCDD1FEF7DAF902270600D3
:10351C00EB6D3B42CDD0FEF7D3F9114B801B98429B
:10352C00F6D9CFE6FEF7CCF90D4B801B9842BDD9EE
:10353C00C8E6C04600100240FFFFFEFFFFFFFBFF86
:10354C00FF80FFFFFFC7FFFF500000200024F400A6
:10355C0014000020FFFEFFFF00700040FFFFFFEF94
:10356C00881300003821434DAA680A40102A53D012
:10357C00414A022B3AD12B68802713402B60FEF76F
:10358C009FF90600BF042B683B4229D1616A236A6C
:10359C00EA680B43394980260A401343E26AB604B1
:1035AC001343226B1343626B1343A26A120213433D
:1035BC00EB6080232A685B0413432B608023EA684A
:1035CC005B051343EB60FEF77BF904002B68334279
:1035DC0000D04DE6FEF774F9001B0228F6D971E60F
:1035EC00FEF76EF9801B0228CDD96BE62B6880267E
:1035FC0013402B60FEF764F90400B6042B683342C9
:10360C0004D1EB681E4A1340EB6031E6FEF758F923
:10361C00001B0228F2D955E6012B00D113E6032238
:10362C00E868216A02408A4200D00CE67022616A86
:10363C0002408A4200D006E6FE21A26AC90101407E
:10364C001202914200D0FEE5F822E16A9203024098
:10365C008A4200D0F7E5E022216B120502408A4233
:10366C0000D0F0E5636B400F4007C01A431E984131
:10367C00C0B2E9E500100240FFFFFFFE8C80C111D3
:10368C00FCFFFEEE382370B51D4CA2681A4205D122
:10369C0023681C489B045B0FD84070BDA2681A407D
:1036AC00082A27D0A2681A40102A17D1E368E168CB
:1036BC00DB43E5684906490F6F322D0A013115408D
:1036CC009B0709D11048FCF70FFDE1686843490FCF
:1036DC000131FCF709FDE0E70A48F4E7A2681A405B
:1036EC00202A09D0A26800201340182BD5D1FA202B
:1036FC00C001D2E70448D0E780200002CDE7C046E5
:10370C00001002400024F40000127A00F7B5040007
:10371C000D00002801D10120FEBD0727484E33685B
:10372C003B408B422AD3226893073BD4D20748D420
:10373C00072733683B40AB420AD93368BB432B4362
:10374C003360FEF7BDF8019033683B40AB4268D163
:10375C0023683C4D5B076CD4FFF794FFAB683A4988
:10376C001B051B0F9B005B581F210B40D840374A91
:10377C00374B10601868FEF75BF8CDE73368BB4336
:10378C000B433360FEF79CF8019033683B40AB422F
:10379C00C9D0FEF795F8019BC01A2E4B9842F4D96C
:1037AC000320B9E72749530704D5E0238868DB01D8
:1037BC0003438B608B6828480340A06803438B60ED
:1037CC00B4E760681F4F032829D8FCF779FC200266
:1037DC001C243B689B039ED50722BB689343034381
:1037EC00BB60FEF76DF801903823BA681A40636825
:1037FC00DB009A429CD0FEF763F8019BC01A154B74
:10380C009842F1D9CCE73B689B01E5D483E73B6850
:10381C005B05E1D47FE73B6E9B07DDD47BE7FB6D5B
:10382C00FAE7FEF74DF8019BC01A0A4B98428BD968
:10383C00B6E7AB68094A1340E2681343AB608BE709
:10384C0000200240001002402CED00085000002027
:10385C001400002088130000FFF0FFFFFF8FFFFF14
:10386C00064B07499B68074A5B045B0F9B005B5840
:10387C001F2110680B40D8407047C0460010024012
:10388C000CED000850000020072230B5F025094B44
:10389C0002609C682D01144044609C682C4084603C
:1038AC00E0249B68E4012340C360034B1B68134076
:1038BC000B6030BD0010024000200240F8B58023A0
:1038CC000700994C9B0298421FD1C022E36D9200D5
:1038DC001340E26D920704D580225200934200D12E
:1038EC001AE1226E920704D580229200934200D1F5
:1038FC0015E122680020920326D58C4A8C489B182F
:10390C005A4253415B4218401EE00322E3681340C5
:10391C00022B1AD0E06810400338431E9841854BA7
:10392C0040421840844BC0188025E168ED00AF423E
:10393C0000D1C4E02CD8202F00D199E007D8012F5A
:10394C0043D0102F5ED00020F8BD7C48ECE78023DC
:10395C009B009F42F7D1616DC0220B0012031340F4
:10396C00114238D0226E920704D58022D2029342A3
:10397C0000D1D4E02268520504D580221203934270
:10398C0000D1CFE0E26D00209207DDD56C4A4FE00C
:10399C000726090931400131FCF7A6FB8021020002
:1039AC00C9018F4246D080239B039F4200D1A2E0E5
:1039BC0080231B019F42C6D1C020636D00021840BA
:1039CC0088426CD10020E36844E0616D03220B0057
:1039DC001340114202D1FFF743FFB5E7012B02D18F
:1039EC00FFF750FEB0E722682A4202D0022B00D12A
:1039FC0098E0E26D0020033B9207A5D55A42534153
:103A0C00D803A1E7616DC0220B00120113401142D3
:103A1C00E1D0AB42E4D022682A4203D080221201CA
:103A2C0093427FD0E26D0020920700D48CE7454A88
:103A3C009B18E3E7636D9B0F9907002BD0D0802375
:103A4C001B0699426ED080230020DB05994200D0E2
:103A5C007AE7E368DB0300D476E7E068E1684004CA
:103A6C00400E50438902C90E0131FCF73DFB6BE758
:103A7C00616DC0220B00920113401142ABD0802229
:103A8C0052019342ACD0226800202A4200D15BE75D
:103A9C002D4A2A489B185A4253415B4233E700286F
:103AAC009ED022682A4203D080221202904239D042
:103ABC00264BC01843425841254B404223E7616DC9
:103ACC00C0220B0092031340114284D0226E920745
:103ADC0003D580225203934221D02268520503D58C
:103AEC008022920393421DD0E26D0020920700D4F5
:103AFC002AE7184A9CE7636D5B0200D46BE7E36826
:103B0C000020DB0100D41FE7E368E1685B04580E7A
:103B1C00490E50433140A7E78020000214E7FA20F9
:103B2C00C00111E705480FE70010024000FDFFFF40
:103B3C0090D0030000EE85FF00127A000024F40000
:103B4C000000F4FF00F4FFFF00E0FFFF0040FFFF68
:103B5C0080BB00000000D0FF01000300012010B565
:103B6C003D310C78E2B2844219D1001808701B6800
:103B7C000C498B4206D08021C9058B4202D00A49E0
:103B8C008B420DD19A6809490A40062A06D007399A
:103B9C008A4203D0012219680A431A60002010BD22
:103BAC001968F9E7002C01400004004007000100EF
:103BBC00020030B502243C32157803002000012DA0
:103BCC0008D018003D3004701B6859610123037044
:103BDC000020107030BD704770470000022203684F
:103BEC0070B5DD681E69040016420DD015420BD06D
:103BFC00053A1A61043202779B699B0700D17CE07D
:103C0C0001F060FF0023237704231E4212D01D42D3
:103C1C0010D00522236852421A61073222779A6922
:103C2C00C0239B0020001A4200D16CE001F04AFF37
:103C3C000023237708231E420FD01D420DD00922EA
:103C4C00236852421A610D322277DB6920009B07F0
:103C5C005FD001F037FF0023237710231E4211D0D1
:103C6C001D420FD01122236852421A611932227759
:103C7C00DA69C0239B0020001A4250D001F022FFC9
:103C8C000023237701231E4208D01D4206D00222B6
:103C9C002368524220001A6101F0E9FE82239B0145
:103CAC001E4207D02B0605D52368204A20001A6136
:103CBC0000F005FAF30507D52B0605D523681C4A39
:103CCC0020001A6100F0FCF940231E4208D01D426E
:103CDC0006D041222368524220001A61FFF77CFF74
:103CEC0020231E4208D01D4206D0212223685242B6
:103CFC0020001A6100F0E2F970BD01F0DFFE200037
:103D0C00FFF769FF7EE701F0D9FE2000FFF763FFA4
:103D1C008EE701F0D3FE2000FFF75DFF9BE701F07B
:103D2C00CDFE2000FFF757FFAAE7C0467FDFFFFF5D
:103D3C00FFFEFFFF10B51C4C0368A04206D080228A
:103D4C00D205904202D0194A904208D17022934376
:103D5C004A681343164A1A40CB68134308E0154AC5
:103D6C009042F7D0144A9042F4D0144A9042F1D0C9
:103D7C00802293434A69134303608B68C3620B68C8
:103D8C008362A04205D00C4B984202D00B4B984258
:103D9C0001D10B690363012242610369134202D012
:103DAC0003699343036110BD002C014000040040E3
:103DBC00FFFCFFFF00200040004401400048014090
:103DCC0070B504000120002C23D025003D352B7844
:103DDC00DAB2002B05D123003C3320001A7002F01C
:103DEC003FFB02232B702068211DFFF7A3FF22004D
:103DFC00012300204832137047340A3A1370537071
:103E0C009370D370137153719371D37113722370B8
:103E1C002B7070BD1F2310B5012419408C408A40B3
:103E2C00036AA3430362036A1A43026210BD0000D3
:103E3C00020010B508291CD006D800290BD0042983
:103E4C0014D01300433308E00C2915D01029F8D1F5
:103E5C000300423301E003003E331B78013B581E44
:103E6C008341DBB20120002B09D010BD03003F338E
:103E7C00F3E703004033F0E703004133EDE702239F
:103E8C00082930D006D800290BD0042928D01000DE
:103E9C00433008E00C2929D01029F8D11000423009
:103EAC0001E010003E300370146801222000FFF77F
:103EBC00B1FF184A944205D0174B9C4202D0174BC5
:103ECC009C4216D18023616C1B020B4363649442A9
:103EDC0016D1A368124A1340062B16D10020C4E752
:103EEC0010003F30DFE710004030DCE710004130BD
:103EFC00D9E78023DB059C42EBD00A4B9C42E8D0EF
:103F0C000123226813432360E8E780225202934284
:103F1C00F6D1E3E7002C0140004401400048014089
:103F2C00070001000004004010B5FFF781FF10BD31
:103F3C00030010B5082927D006D800290BD0042976
:103F4C001FD01A00433224E00C2920D01029F8D1BC
:103F5C00020042321DE002003E3210780632C0B23E
:103F6C001278D2B201284FD1012A3ED10132082950
:103F7C003FD013D8002918D0042937D0180043306B
:103F8C003CE002003F32E8E702004032E5E7020085
:103F9C00413210781A00C0B24732E1E70C292BD01D
:103FAC001029EBD11800423028E018003E30027086
:103FBC0082711C6801222000FFF72CFF134B9C42DE
:103FCC0006D08023DB059C4202D0114B9C4207D1CA
:103FDC00A368104A1340062B06D0073A934203D02D
:103FEC000123226813432360002010BD18003F30CA
:103FFC00DDE718004030DAE71800413002701A0093
:10400C00022047321070D4E70120EEE7002C01406B
:10401C0000040040070001000F2310B504241940D0
:10402C008C408A40036AA3430362036A1A43026208
:10403C0010BD00000300020010B5002905D1443268
:10404C000120147884420AD010BD042901D14532D4
:10405C00F6E7082901D14632F2E74732F0E70220B1
:10406C0010701C6804222000FFF7D6FF8023626CBE
:10407C001B02134363640C4B9C4206D08023DB056C
:10408C009C4202D0094B9C4207D1A368084A1340BA
:10409C00062B06D0073A934203D001232268134320
:1040AC0023600020D0E7C046002C014000040040F3
:1040BC000700010010B5FFF7BDFF10BD704770473A
:1040CC007047000030B5EFF31084012282F31088A2
:1040DC000168134D0B682B400B6084F31088EFF3D1
:1040EC00108182F3108802680E4C93682340936011
:1040FC0081F31088C36E012B0AD1EFF3108183F387
:10410C001088102402681368A343136081F310888D
:10411C00030020228C331A600023C366436730BD32
:10412C00DFFEFFFFFEFFFFEF30B5EFF3108401223F
:10413C0082F31088802501680B68AB430B6084F315
:10414C001088EFF3108182F3108840230268106806
:10415C000343136081F3108830BD030088331B6860
:10416C0010B5212B06D1020056321388002B02D138
:10417C00FFF7DAFF10BD036D01681C7801338C6208
:10418C0003651388013B9BB21380F3E7030088336C
:10419C001B6810B5212B06D1010056310B88002B62
:1041AC0002D1FFF7C1FF10BD026D04681388023203
:1041BC00DB05DB0DA36202650B88013B9BB20B8018
:1041CC00F1E70000030088331B6870B5212B21D167
:1041DC000300010080246A331B885631002B19D050
:1041EC000A88002A17D1EFF31084013282F3108869
:1041FC000168114D8B682B408B6084F31088EFF3B2
:10420C00108182F310884023026810680343136006
:10421C0081F3108870BD0568EA69224208D0026DEE
:10422C0016780132AE6202650A88013A92B20A80AF
:10423C00013B9BB2D2E7C046FFFF7FFF03008833F0
:10424C001B6870B5212B21D10300010080246A3337
:10425C001B885631002B19D00A88002A17D1EFF38E
:10426C001084013282F310880168124D8B682B4048
:10427C008B6084F31088EFF3108182F31088402355
:10428C00026810680343136081F3108870BD0668E0
:10429C00F26922420AD0056D2A880235D205D20D68
:1042AC00B26205650A88013A92B20A80013B9BB260
:1042BC00D0E7C046FFFF7FFF7047704770B5050021
:1042CC000120002D19D02E002423002488363360C1
:1042DC002B681A6882431A6028001C605C609C6022
:1042EC00FFF7EBFF2B00200090331C60043B346085
:1042FC001C60EC662C6784352C7070BD30B50500E5
:10430C0088352C6803000220202C38D10138002974
:10431C0035D0002A33D080209C684001844205D1DE
:10432C001869002802D10130014228D11965190001
:10433C0054310A804A801A000021903211602122E7
:10434C0080212A608022586E92054901904217D133
:10435C00154A8C4204D11969144A002900D0124A1A
:10436C009A67EFF31081012282F310881A68802378
:10437C0090681B040343936081F31088002030BDC8
:10438C000B4A8C4204D119690A4A002900D0084A08
:10439C009A67EFF31081012282F310881A68802348
:1043AC00106803431360E7E7D14100084942000855
:1043BC006741000899410008806A0023020010B58B
:1043CC005E321380083A138002F0FCFB10BD70477C
:1043DC00F7B50168C14DCB6904000A6888682B42A7
:1043EC0010D120252B4200D19BE08026760515406C
:1043FC000640354300D194E0636F2000002B00D0C1
:10440C0085E085E0B64D05400095B64D009E154003
:10441C00354300D185E0250001269035334205D087
:10442C00D70503D50E622F683E432E600226334219
:10443C000CD0C7070AD527000E6290373E6801974B
:10444C00B446042667463E43019F3E600426334231
:10445C000CD0C7070AD527000E6290373E6801972B
:10446C00B446022667463E43019F3E600826B4468A
:10447C00334209D02027009E1740374304D06646AC
:10448C000E622F683E432E6080263601334206D0E2
:10449C00570104D50E6220212E683143296029680A
:1044AC00002935D020210B420AD080235B05114016
:1044BC000340194304D0636F002B01D020009847B0
:1044CC0022682B684027966828223E401340200023
:1044DC001E4322D0FFF7F6FD23689B683B4218D0A1
:1044EC00EFF31081012383F31088250004CD93682A
:1044FC00BB43936081F31088E86F002809D07A4B96
:10450C008363FDF7FBFA002802D0E86F836B9847B2
:10451C00F7BD200002F056FBFAE702F053FB2E60C9
:10452C00F6E7E56E012D00D09FE01026334200D156
:10453C009BE0324200D198E00E62896840230A0069
:10454C001A40194257D0211DCA6F1068426892B2A6
:10455C00002ADDD027005C373F889742D8D9270046
:10456C005E373A80026820208446104000906046F6
:10457C00024232D1EFF3108785F3108820685B4E2E
:10458C0002683240026087F31088EFF3108785F3DE
:10459C00108820688268AA43826087F31088EFF342
:1045AC00108785F31088206882689A43826087F3AD
:1045BC001088230062468C331A60009BE366EFF38D
:1045CC00108085F3108822680F351368AB43136095
:1045DC0080F31088C86FFDF757FA02232200236777
:1045EC0023005C325E331B881188C91A89B2200003
:1045FC00FFF7EDFE8CE721005E310B8809889BB23A
:10460C00002900D184E721005C310988C91A89B2DC
:10461C00002900D17CE7EFF3108785F31088206820
:10462C00334E03683340036087F31088EFF3108731
:10463C0085F3108820682F4E83683340836087F39E
:10464C001088230020208C331860E2666267EFF339
:10465C00108085F31088102522681368AB43136013
:10466C0080F3108802232367C1E780256D032B425A
:10467C0006D0460204D520000D6202F0EBFA47E7A3
:10468C0080210B4207D080252D0411402840014386
:10469C0001D0A36FB1E640210B4216D00A4214D0D0
:1046AC00EFF31080012383F31088226813688B4387
:1046BC00136080F310882300202288331A600023B3
:1046CC002000A36702F077FA22E7190214D55100F3
:1046DC0012D5200000F0D7FE1AE7C0460F080000E4
:1046EC000100001020010004C5430008FFFEFFFF7D
:1046FC00DFFEFFFFFEFFFFEFDB0100D408E7002A1F
:10470C0000DB05E7200000F0BDFE01E701008C3165
:10471C000A68F8B50368222A5DD1040060345B6A2C
:10472C002488826D234013700200836D5E32013346
:10473C0083651388013B9BB2138013889CB2002BBA
:10474C0045D1EFF31086013383F310880568244FAD
:10475C002A683A402A6086F31088EFF3108683F3B8
:10476C0010880568AA689A43AA6086F310882022EC
:10477C000A6002681B49446704678A420DD052687C
:10478C0012020AD5EFF3108183F310880268164CDD
:10479C0013682340136081F31088C36E012B17D16B
:1047AC000022C266EFF3108483F3108801680F3384
:1047BC000A689A430A6084F310880268D169194226
:1047CC0000D0136203005C331988FFF700FEF8BDBC
:1047DC0002F0EAF9FBE7082299690A439A61F6E7C5
:1047EC00DFFEFFFF00800040FFFFFFFB02008C326A
:1047FC001168F8B5036822295CD104006034596A49
:10480C002488836D214019800100023383655E3159
:10481C000B88013B9BB20B800B889CB2002B45D1C3
:10482C00EFF31086013383F310880568244F296851
:10483C003940296086F31088EFF3108683F31088D3
:10484C000568A9689943A96086F310882021116036
:10485C0002681C49446704678A420DD052681202F0
:10486C000AD5EFF3108183F310880268164C136895
:10487C002340136081F31088C36E012B17D10022E3
:10488C00C266EFF3108483F3108801680F330A6853
:10489C009A430A6084F310880268D169194200D0E7
:1048AC00136203005C331988FFF791FDF8BD02F029
:1048BC007BF9FBE7082299690A439A61F6E7C0463F
:1048CC00DFFEFFFF00800040FFFFFFFBF0B5036839
:1048DC0085B0DD691A68040003929A68019202009F
:1048EC008C321268222A00D0CBE0030068331B887C
:1048FC00002B08D123005E331B889AB2002B00D00A
:10490C009FE005B0F0BD030060331B8802932023A9
:10491C001D42EFD02600236802995B6AA26D0B4002
:10492C001370A36D5E360133A36533882268013B97
:10493C009BB233800723D5691D422FD0063B1D4205
:10494C0008D00399C90505D5210013629031086878
:10495C0003430B6002231D4209D00199C90706D5F8
:10496C002100136290310868DB1803430B600423A9
:10497C001D4209D00199C90706D513622200903255
:10498C001168023B0B431360270090373B68002BE8
:10499C0004D0200002F016F900233B60338899B252
:1049AC00002BB4D1EFF31086013383F31088206809
:1049BC00364F02683A40026086F31088EFF3108697
:1049CC0083F310882068324F82683A40826086F305
:1049DC001088220020208C321060616721672268C9
:1049EC002C498A420DD0526812020AD5EFF310817D
:1049FC0083F310882268284813680340136081F3FE
:104A0C001088E36E012B18D10022E266EFF31080C0
:104A1C0083F3108821680F330A689A430A6080F385
:104A2C0010882268D169194200D0136223005C33CC
:104A3C0020001988FFF7CBFC69E7200002F0B4F8DE
:104A4C0065E7230068331B88934200D859E7EFF3DE
:104A5C001080012282F310882168104D8B682B4046
:104A6C008B6080F310880E4B6367EFF3108182F339
:104A7C0010882023226810680343136081F3108888
:104A8C003FE7082299690A439A613AE7FFFEFFFF64
:104A9C00FEFFFFEF00800040FFFFFFFBFFFFFFEF7B
:104AAC0019470008F0B5036885B0DD691A68040081
:104ABC0003929A68019202008C321268222A00D06A
:104ACC00C9E0030068331B88002B08D123005E3338
:104ADC001B889AB2002B00D09DE005B0F0BD0300FE
:104AEC0060331B88029320231D42EFD026002368DD
:104AFC000298596AA26D014011800232A2655E369D
:104B0C003288013A92B232800722DD6915422FD0E9
:104B1C00063A154208D00399C90505D521001A6239
:104B2C009031086802430A600222154209D00199AB
:104B3C00C90706D521001A62903108689218024301
:104B4C000A600422154209D00199C90706D51A62D8
:104B5C0022000223903211680B4313602700903718
:104B6C003B68002B04D0200002F02CF800233B60A3
:104B7C00338899B2002BB6D1EFF31086013383F34F
:104B8C0010882068364F02683A40026086F310881D
:104B9C00EFF3108683F310882068324F82683A4016
:104BAC00826086F31088220020208C3210606167AE
:104BBC00216722682C498A420DD0526812020AD50C
:104BCC00EFF3108183F310882268284813680340A0
:104BDC00136081F31088E36E012B18D10022E2667A
:104BEC00EFF3108083F3108821680F330A689A431F
:104BFC000A6080F310882268D169194200D01362D0
:104C0C0023005C3320001988FFF7E1FB6BE72000E1
:104C1C0001F0CAFF67E7230068331B88934200D872
:104C2C005BE7EFF31080012282F310882168104DAE
:104C3C008B682B408B6080F310880E4B6367EFF30F
:104C4C00108182F3108820232268106803431360BC
:104C5C0081F3108841E7082299690A439A613CE77D
:104C6C00FFFEFFFFFEFFFFEF00800040FFFFFFFB9A
:104C7C00FFFFFFEFF94700080200F0B5843211780E
:104C8C000300022001291FD01C000121883422308E
:104C9C0011702060EFF3108681F310880C271D68CB
:104CAC002868B843286086F31088EFF3108081F3EE
:104CBC001088196808230D682B430B6080F310884B
:104CCC002023002023601070F0BD0200F0B5843268
:104CDC0011780300022001291FD01C000121883407
:104CEC00223011702060EFF3108681F310880C27AE
:104CFC001D682868B843286086F31088EFF310808D
:104D0C0081F31088196804230D682B430B6080F322
:104D1C0010882023002023601070F0BD030088331E
:104D2C008C301B680068184370470000F8B504000D
:104D3C002569A26823682A4365691968C0692A43F2
:104D4C00664D024329400A431A605A686449A569B2
:104D5C000A40E1680A4363495A608B4201D0226AD7
:104D6C0015439A68604E32402A430F259A60DA6ADE
:104D7C00AA43656A2A43DA625C4A934214D15C4BBB
:104D8C005A6D03231A4080231B02022A00D195E09E
:104D9C00032A00D19EE0012A00D196E0984200D06F
:104DAC0078E0FEF75DFD55E0524A934200D189E070
:104DBC008B4210D1C02280214D4B12015B6D090139
:104DCC0013408B4214D004D8002B06D1FEF748FDBB
:104DDC0005E0934239D0012004E0FEF753FC061E97
:104DEC0007D10020444BA36600236367A367F8BD7B
:104DFC00424E626A424B5200D75A30003900FBF7E0
:104E0C0073F9032365686B438342E4D82B03834215
:104E1C00E1D300233A0030001900FBF753FB0027C5
:104E2C00060E0B02334302026E0892197B411000EE
:104E3C0019002A003B00FBF745FB324BC218324BE2
:104E4C009A42C8D82368D860CBE780263602D0E7D0
:104E5C00FEF718FC0028C4D0626A294B5200D15AC4
:104E6C00FBF742F9656840006B08C0182900FBF796
:104E7C003BF90200254B103A9A42ACD80F230200A2
:104E8C0000079A4393B2400F22680343D360A8E70C
:104E9C001A48E1E7FEF7E4FC0028A2D0626A184B3E
:104EAC005200D15AFBF720F965686B08C01829002D
:104EBC00FBF71AF90200154B103AC1E79842E7D0FC
:104ECC000E48EBE780231B0268E79842C0D0FEF740
:104EDC00D9FBE1E79842BFD01800DFE7F369FFCFB9
:104EEC00FFCFFFFF00800040FFF4FF1100380140AE
:104EFC000010024000440040010001000024F400B6
:104F0C00A4EC000800FDFFFFFFFC0F00EFFF00000A
:104F1C00836A30B51A0706D50168284C4A682240C6
:104F2C00846B22434A60DA0706D50168244C4A6830
:104F3C002240C46A22434A609A0706D50168214C74
:104F4C004A682240046B22434A605A0706D501681E
:104F5C001D4C4A682240446B22434A60DA0606D54F
:104F6C0001681A4C8A682240C46B22438A609A06F4
:104F7C0006D50168164C8A682240046C22438A606C
:104F8C005A0610D50168134D4A68446C2A402243D6
:104F9C004A6080225203944205D14A680E4C22404A
:104FAC00846C22434A601B0606D502680B49536881
:104FBC000B40C16C0B43536030BDC046FF7FFFFFFD
:104FCC00FFFFFDFFFFFFFEFFFFFFFBFFFFEFFFFFFC
:104FDC00FFDFFFFFFFFFEFFFFFFF9FFFFFFFF7FF6D
:104FEC00F7B504000D00170000932268D3692B401D
:104FFC005B1B59424B41BB4201D0002026E0089B71
:10500C000133F3D0FCF75CFC009BC01A089B984260
:10501C002DD8002B2BD023681A685207E5D52A000F
:10502C004021403A8A43E0D0DA6908261100314029
:10503C00019132420BD020001E62FFF743F823008F
:10504C0090331E600023012084342370FEBD802227
:10505C00D96912011142C8D01A622000FFF732F848
:10506C002300202290331A60019B84342370032088
:10507C00ECE7F0B51700020087B08832059313688F
:10508C0004000D000220202B39D10138002936D024
:10509C00002F34D08023A1685B01994204D123698D
:1050AC00002B01D105422AD12300002690331E602B
:1050BC0021231360FCF704FC230054331F800233BC
:1050CC0003931F808023A26804905B019A4204D151
:1050DC002369B34201D12E001D00230056331B88D7
:1050EC009AB2002B0DD1059B200000934021049B0C
:1050FC00FFF776FF20238834236000280ED107B0F9
:10510C00F0BD059B0022009380212000049BFFF73B
:10511C0067FF002804D02023883423600320EEE7A7
:10512C002268002D0BD133880236DB05DB0D936230
:10513C00039B039A1B88013B9BB21380CDE72B7812
:10514C0001359362F4E70000030073B500260400F8
:10515C0090331E60FCF7B4FB236805001B681B072B
:10516C001FD58021284B32000093890303002000B7
:10517C00FFF736FFB04214D0EFF31081012383F315
:10518C0010888020226813688343136081F3108891
:10519C002300202288331A600320002384342370D8
:1051AC0076BD260023688C361B685B0723D58021CF
:1051BC00154B0022009320002B00C903FFF710FFB2
:1051CC00002818D0EFF31080012282F31088216898
:1051DC000E4D0B682B400B6080F31088EFF31080A2
:1051EC0082F3108821688B6893438B6080F310885E
:1051FC0020233360D0E723002022002088331A605C
:10520C003260E0662067C8E7FFFFFF01DFFEFFFFAB
:10521C0070B5041E01D1012070BD050088352B68C6
:10522C00002B04D1020084321370FFF745F82423BD
:10523C00012122682B6013688B431360A36A002B37
:10524C0002D02000FFF764FE2000FFF76FFD01285D
:10525C00E1D0236807495A6820000A402A215A6085
:10526C009A688A439A60012219680A431A60FFF708
:10527C006BFFD1E7FFB7FFFF70B5041E01D1012012
:10528C0070BD050088352B68002B04D102008432D8
:10529C001370FFF711F82423012122682B60136887
:1052AC008B431360A36A002B02D02000FFF730FE63
:1052BC002000FFF73BFD0128E1D0236809495A681B
:1052CC0020000A4022215A609A688A439A60082278
:1052DC0099680A439A60012219680A431A60FFF719
:1052EC0033FFCDE7FFB7FFFF03005C3370B581657B
:1052FC0080241A805A800023816843676401A1428C
:10530C003CD1036959424B411B02FF330100603110
:10531C000B8003000021903319602231043B19608B
:10532C00EFF31084012383F3108801688D682B43FD
:10533C008B6084F3108880258021466E8468036915
:10534C00AD054901AE423FD1050068352D88954227
:10535C003AD88C4233D1002B22D12C4B4367EFF33C
:10536C001081012383F31088802302685B05906809
:10537C000343936081F31088002070BD002905D190
:10538C000169FF230029C1D0803BBFE7802464055D
:10539C00A142BBD101697F230029B7D0403BB5E7BF
:1053AC001B4B4367EFF31081012383F310880268D2
:1053BC00FF3314682343136081F31088CFE7144A3A
:1053CC004267002BCBD0EDE78C421AD1002B0AD1CF
:1053DC00104B4367EFF31081012383F310880268AD
:1053EC001F3310680AE00C4B4367EFF31081012365
:1053FC0083F31088026820331068FF330343136073
:10540C00B8E7054A4267002BE4D0EEE7B14A000842
:10541C00D9480008F94700081947000803008C33E5
:10542C0070B51C680223202C28D1013B002925D003
:10543C00002A23D0802384685B019C4205D1036938
:10544C00002B02D10133194218D100230C4CC36636
:10545C000368A3420FD05B681B020CD5EFF31085D9
:10546C00012383F3108880230468DB04266833430C
:10547C00236085F31088FFF737FF0023180070BDF9
:10548C000080004070477047020010B584321178DC
:10549C000300022001290ED001211170EFF31080BE
:1054AC0081F31088196802230C6823430B6080F386
:1054BC0010880020107010BD020010B584321178D5
:1054CC000300022001290ED001211170EFF310808E
:1054DC0081F31088022419680B68A3430B6080F3D6
:1054EC0010880020107010BD836810B50400002BCC
:1054FC0005D00322010098470023A360E36010BD90
:10550C004B1E032B00D9FEE78800043870470000BF
:10551C0000B50139425C102013000340024204D054
:10552C00022917D80C4B4800C35AD20708D50329B7
:10553C0010D80800FAF7C4FD0206080B0122134329
:10554C00180000BD1022FAE780225200F7E78022F3
:10555C005201F4E7FEE7C046C4EC00080139032908
:10556C0000D9FEE7014B585C7047C046C0EC000800
:10557C000139032900D9FEE7014B585C7047C0463E
:10558C00BCEC0008F7B504000E00FFF7B9FF3100C2
:10559C0005002000FFF7E2FF33016433E3180193A9
:1055AC009B68002B05D0C24323691A61DA68024359
:1055BC00DA60771E7B00E31898880B2817D8FAF767
:1055CC007FFD4E1717170606171748484828E35D46
:1055DC00DB0604D5200029001030FEF76BFDE35DDF
:1055EC00DB0704D5200029001030FEF79DFCF7BD29
:1055FC00E35DDB0604D5200029001030FEF71AFD10
:10560C00E35DDB07F3D5200029001030FEF710FC1A
:10561C00EDE7200029001030FEF78AFC3100200055
:10562C00FFF7A6FF010006002000FFF771FF2569B8
:10563C002B6A1843019B28629B68002BD7D0310042
:10564C002000FFF78BFFC3432B61EB681843E86026
:10565C00CDE7200029001030FEF76AFCC7E723696C
:10566C001B68DB07C3D420001030FEF775FABEE7C9
:10567C0070B50121040002256B00E35A002B04D005
:10568C00691E2000FFF77EFF00210135062DF3D1A6
:10569C00E36E002B07D00222236952421A61D868AC
:1056AC0003320243DA60002907D023691B68DB0749
:1056BC0003D420001030FEF74FFA70BD10B5012155
:1056CC001030FEF775FA10BD0369186801231840F5
:1056DC00704770B505000C00FFF7F6FF00280FD1DE
:1056EC000126E36833420CD0E3682800B343E3603F
:1056FC00FFF7E4FF02235B422361E3681E43E6608D
:10570C0070BD2800FFF7DAFFFAE700000E4A03002D
:10571C00904213D08022D205904211D00B4A904275
:10572C0010D00B4A0320934209D00A4A013093420D
:10573C0005D0094A0130934201D0FEE700207047A2
:10574C000120FCE70220FAE7002C01400004004095
:10575C0000200040004401400048014070B50400A6
:10576C000069FFF7D3FF05002000103000F0D2FDD8
:10577C000022084BAD00EA5026002500E260B4354B
:10578C006436B54204D0103D2800FBF7E7FCF8E77F
:10579C00200070BD3C0E0020F8B5040008000D0080
:1057AC00FFF7B4FF2369002B00D0FEE721001A4A53
:1057BC0080000C31815022002C32256126001370A0
:1057CC00203223636363A363E36323646364A3648E
:1057DC001370537003221036300025002700E4604C
:1057EC00E265236600F034FD6435B43728001035CB
:1057FC00FFF77AFEBD42F9D10023084A23606360AB
:10580C00A3606361A3612362636280333000E26151
:10581C00A362FEF7D5FAF8BD3C0E0020FFFF000096
:10582C0030B587B002AC050010220021200003F037
:10583C0069F90023200001A90193FEF725F82869D6
:10584C0000F033FE012815D1059CFEF709F8C023A2
:10585C00DB019C4206D007D88022074BD2012340A3
:10586C00934205D1400003E0E023DB019C42F9D0D8
:10587C0007B030BDFEE7C046FFEFFFFF70B5050077
:10588C000C00012A0CD0022A18D023005A1E934176
:10589C002969E41A2800CC62EC61FFF71AFF70BD8D
:1058AC00FFF7BEFF0849FAF71FFC60432B69010C98
:1058BC0099620131FAF718FC0400E6E7FFF7B0FF34
:1058CC002100FAF711FCF1E740420F00044B10B530
:1058DC001868002802D00430FEF780F910BDC046CD
:1058EC003C0E002010B5FFF7F1FF10BD044B10B5B6
:1058FC005868002802D00430FEF770F910BDC0467D
:10590C003C0E0020044B10B59868002802D00430DF
:10591C00FEF764F910BDC0463C0E0020044B10B5D8
:10592C00D868002802D00430FEF758F910BDC046E4
:10593C003C0E0020044B10B51869002802D004302E
:10594C00FEF74CF910BDC0463C0E0020044B10B5C0
:10595C005869002802D00430FEF740F910BDC0464B
:10596C003C0E002010B50C220021040003F0CAF8F4
:10597C0000232000E36010BDF8B50500070004000B
:10598C000E006435B43728001035FFF7EBFFBD422D
:10599C00F9D10023310020002361FFF7FDFE200028
:1059AC00F8BD70B50C220D000021040003F0AAF81C
:1059BC000023E360AB68002B07D0022229002000F3
:1059CC009847EB68E360AB68A360200070BD70B5CE
:1059DC00040086B002AD2800FFF7E3FF290008227F
:1059EC00684603F000F92B0022006E4603CA03C37D
:1059FC00230006CE06C3049BA268A360059B0492F9
:105A0C00E2682800E3600592FBF7A8FB06B070BDC6
:105A1C00C36E70B504000D006430002B02D0FFF78C
:105A2C00D6FF70BDFFF7D3FFAB68002BF9D0022275
:105A3C00236952421A61D96803320A43DA60F0E7EB
:105A4C00836810B5002B01D108F050FCC36898474F
:105A5C0010BD10B5002800D1FEE700F0F7FB006880
:105A6C00C36E002B02D06430FFF7EAFF10BD10B5F7
:105A7C00FFF7EFFF10BD030010B5002800D1FEE7C3
:105A8C00007F0138072812D8FAF71AFB04161112F6
:105A9C00111111140124180000F0D8FB2401006826
:105AAC00643400198368002B01D0FFF7C9FF10BDC7
:105ABC000324F0E70424EEE70224ECE710B5FFF72B
:105ACC00DAFF10BD10B5FFF7D6FF10BD10B502F010
